:020000040800F2
:1000000048070020C9000008ED100008471000084C
:1000100000000000000000000000000000000000E0
:10002000000000000000000000000000F1100008C7
:100030000000000000000000EF100008F3100008AE
:10004000DB00000800000000DB000008DB00000807
:10005000DB000008DB000008DB000008DB00000814
:1000600000000000DB000008DB000008DB000008E7
:10007000DB000008DB000008DB00000800000000D7
:10008000DB0000080000000000000000DB000008AA
:1000900000000000DB000008DB000008DB000008B7
:1000A00000000000DB00000800000000E51600086A
:1000B0000448854600F0A4F80048004715190008D8
:1000C000C046C0464807002004488047044800470F
:1000D000FEE7FEE7FEE7FEE7FEE7FEE76511000844
:1000E000B100000830B50B46014600202022012453
:1000F00009E00D46D5409D4205D31D469540491B5C
:100100002546954040191546521E002DF1DC30BDA4
:1001100070B500242546002801DA01244042002958
:1001200001DA01254942FFF7DDFFAC4200D0404231
:10013000002C00D0494270BDF0B51FB40646002027
:1001400082B005464024019100901BE001992246AF
:100150000F46304600F020F8049A059B801A99411A
:1001600010D310461946224600F039F8361A8F414E
:100170000197224601200021009F00F030F8381836
:100180004D4100902046641E0028DFDC019B009852
:100190002946324607B0F0BD10B5202A04DB0846D8
:1001A000203AD040002110BD0B46D340D04020243F
:1001B000A21A91400843194610BDD2B201E0027064
:1001C000401C491EFBD270470022F6E710B51346CB
:1001D0000A4604461946FFF7F0FF204610BD10B549
:1001E000202A04DB0146203A9140002010BD9140B6
:1001F00020239C1A0346E3401943904010BD0000A1
:10020000064C0125064E05E0E36807CC2B430C3C69
:1002100098471034B442F7D3FFF74EFF301D000863
:10022000501D000830B5014620314B780022022BCA
:1002300004D0042383630A70012030BD03681C6866
:100240000E25AC431C6003681C68640864001C60D5
:100250000123056C1C46C06BAC4044604B700A70B7
:10026000002030BD70B50024014620314A78022AB2
:1002700003D004218163012416E0026813680E256F
:10028000AB431360026813685B085B0013600122D4
:10029000056C1346AB40C56B6B604A7000220A7058
:1002A000416B002900D08847204670BD70B50446D8
:1002B00000F0EEF80546601C02D0044800782418CF
:1002C00000F0E6F8401BA042FAD370BD5C000020AD
:1002D000F8B5002303240125BAE02E469E40B4461B
:1002E00032407CD00E79B607B60F012E01D0022E17
:1002F00017D186682746B6465E00B7400096764618
:10030000BE43B646CF68009EB74076463743876007
:1003100046686746BE430F79FF06FF0F9F4037438D
:1003200047600E79F643B6070ED0C6682746B44636
:100330005E00B646B7406646BE43B4468F68764612
:10034000B74066463743C7600E79B607B60F022E30
:1003500014D1DE08B60036180096366A5F07B44638
:10036000FE0E0F27B646B7406646BE43B4460F6939
:100370007646B74066463743009E37620668274692
:10038000B4465E00B646B7406646BE430F79B446F3
:10039000BF07BF0F7646B7406646374307604E68D3
:1003A000B603B60F53D02D4FBE692E43BE61BE6952
:1003B0009F08F607F60F2A4EBF00BE190096B668D2
:1003C0000F27B4469E07360FB646B7406646BE4373
:1003D0000927FF06B446B84202D1002710E036E0F4
:1003E000204FB84201D101270AE01F4FB84201D186
:1003F000022705E01D4FB84201D1032700E0052781
:100400007646B74066463743009EB760184E36685A
:100410004F689643FF0300D51643154F3E607E6834
:100420004F689643BF0300D51643114F7E60BE68E8
:100430004F689643FF0200D516430D4FBE60FE681D
:100440004F689643BF0200D51643094AD6605B1C2D
:100450000A681646DE4000D03FE7F8BD00100240B3
:10046000000001400004004800080048000C00485B
:1004700000040140426913460B401B0491430B43A7
:1004800083617047002A01D08161704781627047A3
:1004900001488068704700005C00002002488168C5
:1004A00002788918816070475C00002010B506480A
:1004B0000168102211430160002000F007F800F0ED
:1004C00027F8002010BD00000020024070B504464F
:1004D0000D4D7D202978C000FFF704FE01460B4832
:1004E0000068FFF7FFFD00F043FB002809D1042C52
:1004F00007D200222146401E00F02AF800206C603E
:1005000070BD012070BD00005C000020680000206C
:1005100008B5084881690122114381618169114050
:100520000091C26901040A43C261C0690840009099
:1005300008BD000000100240002805DBC106C90EFE
:1005400001208840014908607047000000E100E098
:1005500010B501F0FFF810BDF8B505460068354C40
:10056000C00352D5E0690026C00007D4E169200429
:100570000143E161E1690140012600912E480168D3
:10058000C90510D40168821511430160FFF780FF8F
:10059000074604E0FFF77CFFC01B642824D82648E8
:1005A0000068C005F6D5206A03273F02384020D0F6
:1005B0006968394081421CD0206A226AB84301210F
:1005C00009040A432262226A8A4322622062C00727
:1005D0000FD0FFF75DFF009008E0FFF759FF00998B
:1005E000411A1648814201D90320F8BD206A8007CC
:1005F000F3D5206A6968B84308432062002E04D00E
:10060000E169012000078143E1612878C00705D036
:10061000206BA96880088000084320632878800642
:1006200005D5206B10218843E9680843206300202A
:10063000F8BD000000100240007000408813000068
:10064000F8B50F46060059D03A4D2868C007C00FCC
:10065000B84209D22868400840003843286028681A
:10066000C007C00FB84249D13068334C81070CD560
:10067000400704D56068072109020843606060688C
:10068000F0218843B168084360603078C00726D005
:10069000706801280ED0216802280ED08907002931
:1006A0002CDA61688908890001436160FFF7F0FE78
:1006B00000900DE021688903F1E78901EFE7FFF77A
:1006C000E7FE0099411A1D48814201D90320F8BD77
:1006D00060680C210840716889008842EFD1286861
:1006E000C007C00FB8420BD9286840084000384303
:1006F00028602868C007C00FB84201D00120F8BDAB
:100700003078400706D56068072109028843F16800
:100710000843606000F028F86168094A0906090F7B
:10072000515CC840074908600020FFF7CFFE002059
:10073000F8BD0000002002400010024088130000B5
:10074000181D000868000020044805490068496831
:10075000044A4905490F515CC840704768000020B1
:1007600000100240281D000810B514A30FCB88B05C
:100770006C460FC415A30FCB0FC4184A51680C2048
:100780000B4603401648042B16D0082B14D18B02BD
:100790001B0F6C46E45CD26A04AB1207120F9A5C22
:1007A000C90305D500231946FFF7C6FC214601E021
:1007B00020460C4900F0B6FF08B010BD0203040546
:1007C000060708090A0B0C0D0E0F10100102030496
:1007D00005060708090A0B0C0D0E0F100010024049
:1007E00000127A0000093D00FEB5040070D02078A8
:1007F000DC4DC0074AD068680007800F012807D089
:1008000068680007800F022809D16868C00306D510
:10081000286880033AD560680028E7D036E0616830
:10082000012914D001208004002901D0052914D009
:100830002A68012109048A432A60296881432960C2
:100840006068002816D0FFF723FE06460EE02868F1
:100850000121090408432860F2E72968014329605F
:10086000F5E7FFF715FE801B64286ED82868800323
:10087000F7D50BE0FFF70CFE064604E0FFF708FE95
:10088000801B6428F1D828688003F7D420780126DB
:10089000800700283CDA68680007800F07D0686886
:1008A0000007800F022809D16868C00306D42868B1
:1008B000800716D5E06801280AD112E0E068002818
:1008C000286816D030432860FFF7E2FD074605E0B0
:1008D00043E1FFF7DDFDC01B0228C6D8286880076A
:1008E000F7D52868F82188432169C90008432860A2
:1008F0000EE0400840002860FFF7CAFD074604E00C
:10090000FFF7C6FDC01B0228AFD828688007F7D4C0
:100910002078000722D5E0690028686A0ED03043AD
:100920006862FFF7B5FD074604E0FFF7B1FDC01BA5
:1009300002289AD8686A8007F7D50FE0400840007F
:100940006862FFF7A5FD074605E09DE0FFF7A0FD03
:10095000C01B022889D8686A8007F7D4207804274A
:100960004007002860DA00200190E869C00008D440
:10097000E969B8060143E961E96901400120009194
:10098000019079480168C90511D4016882151143A5
:100990000160FFF77DFD009005E0FFF779FD00990C
:1009A000401A642870D870480068C005F5D5A06862
:1009B00001280AD0002801D0052810D0286A400854
:1009C00040002862286AB84301E0286A3043286260
:1009D000A068002812D0FFF75BFD00900AE0286AAB
:1009E00038432862F1E7FFF753FD0099411A5F4849
:1009F000814249D8286A8007F5D50DE0FFF748FD08
:100A0000009006E0FFF744FD0099411A57488142E3
:100A10003AD8286A8007F5D40198002804D0E969FB
:100A2000012000078143E9612078C00635D560695F
:100A300001280CD0401D686B23D038436863686B75
:100A4000400840006863FFF723FD064622E0686B1C
:100A500038436863686B30436863FFF719FD0646E7
:100A600004E0FFF715FD801B02285BD8686B800748
:100A7000F7D5686BF8218843A169C900084368630A
:100A80000BE0B8436863F4E74CE0FFF701FD801B1F
:100A9000022847D8686B8007F7D4206A00285ED008
:100AA00069680907890F022942D001263606022803
:100AB000286805D0B0432860FFF7EAFC044633E01D
:100AC000B0432860FFF7E4FC074604E0FFF7E0FCD2
:100AD000C01B022826D828688001F7D4E86AE16A9A
:100AE000000900010843E862616AA06A0843696876
:100AF0003D2212049143084368602868304328600F
:100B0000FFF7C6FC044604E0FFF7C2FC001B022806
:100B100008D828688001F7D521E0FFF7B9FC001B51
:100B2000022801D90320FEBD28688001F5D416E013
:100B30000128F8D06868E96A01221204636A024059
:100B40009A420AD10907E26A090F914205D10F21A1
:100B500089040840A16A884201D00120FEBD00201E
:100B6000FEBD00000010024000700040881300002D
:100B7000094910B5401E884201D9012010BD074C1B
:100B800060610321081F00F0E5FD0020A06107203F
:100B90002061002010BD0000FFFFFF0000E000E02A
:100BA00070477047F8B502680446D06911689668C6
:100BB0009C4B05461D402023002D75D0F7079A4D0C
:100BC000FF0FBC460D402F436DD02546C70780352B
:100BD000002F06D0CF0504D5012717622A683A43B3
:100BE0002A60820708D5F20706D0276802223A62F7
:100BF0002A6804273A432A60420708D5F20706D03C
:100C00002668042232622A68022632432A600207DA
:100C10000AD50A461A406646324305D0266808229D
:100C200032622E6816432E60020508D54A0106D5A9
:100C300001222668D20232622A681A432A602A6890
:100C4000002A39D0800606D5880604D5616E0029B1
:100C500001D020468847286821688968490602D45F
:100C6000282108422DD0204600F01EFB216888680C
:100C7000400622D5EFF31080012282F310888B68A2
:100C8000402293438B6080F31088206F002814D09B
:100C900066494163206FFFF7E5FA00280CD0206F0A
:100CA000416B08E000E012E0850610D58D060ED5F8
:100CB000616E9DE020468847F8BD2046FFF771FF32
:100CC000F8BD2046FFF76DFF00202860F8BD256EB7
:100CD000012D7DD1C5067BD5CD0679D510261662AE
:100CE00022689068254640064035002845DA216F85
:100CF000086840680004000CE8D02F8B8742E5D9D3
:100D000068838869202833D0EFF31080012181F3B4
:100D1000108811683701B943116080F31088EFF330
:100D20001080012181F3108821688A6852085200DE
:100D30008A6080F31088EFF31080012181F310881E
:100D400021688A684027BA438A6080F31088E36785
:100D500000202066EFF31080012181F310882168C4
:100D60000A68B2430A6080F31088206FFFF75AFACE
:100D7000288B698B401A81B231E0288B698B401A2D
:100D800081B2688B0028A1D000299FD0EFF310809A
:100D9000012585F310881568FF272137BD431560AD
:100DA00080F31088EFF31080012282F3108822680C
:100DB00095686D086D00956080F31088E3670020EA
:100DC00020666066EFF31080012282F3108800E055
:100DD00009E022681368B343136080F3108820464B
:100DE000FFF7DEFEF8BD050606D50D0604D5A16E9B
:100DF000002900D05EE7F8BD4006FCD54806FAD5CC
:100E00002046EFF31081012484F3108814684025F4
:100E1000AC43146081F3108883670021816600F081
:100E200011F9F8BD0F080000200100049512000818
:100E300010B5040003D0A06F002802D007E0012005
:100E400010BD002174200155204600F027F8242011
:100E5000A06720680168490849000160204600F049
:100E6000FBFA0128ECD0606A002802D0204600F08E
:100E70007AF9206841680122D202914341602068DA
:100E80008168082291438160206801680122114332
:100E90000160204600F0CCF910BD000010B586B00E
:100EA000044614216846FFF78FF9164920688842E6
:100EB00026D115488269012189030A43826182692A
:100EC0000A4005924269C9000A43426140690840EC
:100ED00005900C2000900220019000200290032039
:100EE00003900120049009206946C006FFF7F0F93D
:100EF000002211461B20FFF72BFB1B20FFF71CFBDA
:100F000006B010BD003801400010024070B5C36F3C
:100F1000202B2BD100290BD0002A09D00124836873
:100F20002403A34206D10369002B03D1CB0701D0D0
:100F3000012070BD034660331C7D012C16D00124B6
:100F40001C7500230366046863681B020BD5EFF36E
:100F50001083012585F3108825680126B6063543E0
:100F6000256083F3108800F005FB70BD022070BD82
:100F70007047FFB50446806F83B017460D462028A2
:100F80005ED1002D0AD0002F08D0A168C001814297
:100F900007D12069002804D1E80702D0012007B05A
:100FA000F0BD204660300090007D012848D00098B8
:100FB000012101750020802108512120A067FFF741
:100FC00067FA264640360190378277820120A16871
:100FD0000003814202D12069002805D02F46002558
:100FE00000990020087511E00027F9E70022802110
:100FF000204600F00DFB002815D1002F15D02168E8
:10100000387808857F1C708A401E7082708A019B28
:10101000002806980090E9D100224021204600F0E7
:10102000F7FA002808D00320B9E728882168C0050E
:10103000C00D0885AD1CE6E72020A0670020AEE7C4
:101040000220ACE77047FEE730B587B01421684650
:10105000FFF7BAF815484269012149040A43426181
:1010600042690A400592426949000A434261406967
:101070000F4D08400590002203212846FFF702FA91
:1010800003200090012000240190029469460394FB
:101090002846FFF71DF91820009001946946029434
:1010A0002846FFF715F907B030BD000000100240D8
:1010B0000004004810B50C480A4901604B21C901E1
:1010C000416000218160C16001618161C1610C22C8
:1010D000016242614162FFF7ABFE002801D072B6A7
:1010E000FEE710BD00380140C4020020FEE7704753
:1010F000704710B5FFF7D2F910BD30B595B030216B
:101100006846FFF761F800240F9402200D940E94B6
:10111000009012940125139410200C9403950490D0
:101120001094119408946846FFF75EFB002801D0E4
:1011300072B6FEE707200C900D940E9400210F94D8
:101140000CA8FFF77DFA002801D072B6FEE710A8C0
:1011500010951294FFF700FA002801D072B6FEE74E
:1011600015B030BD704710B5818CC90707D0016834
:101170004A6801235B049A43836A1A434A60818C5C
:10118000890707D501684A6801231B049A43C36A8B
:101190001A434A60818C490707D501684A680123D0
:1011A0009B049A43036B1A434A60818C090707D555
:1011B00001684A680123DB039A43436B1A434A6080
:1011C000818CC90607D50268916801231B039943E6
:1011D000836B19439160818C890607D501688A6801
:1011E00001235B039A43C36B1A438A60818C4906CF
:1011F00012D503685A6801210905046C8A43224309
:101200005A60026C8A4207D10268516803235B0569
:101210009943436C19435160818C090607D50168D5
:101220004A680123DB04806C9A4302434A6010BD84
:10123000F8B50446002680300660FFF729F9054618
:1012400020680068124F000709D501212B460022B3
:1012500049052046009700F0DBF900280DD12068F1
:10126000006840070BD501212B4600228905204646
:10127000009700F0CDF9002801D00320F8BD202010
:10128000A067E0672666603426750020F8BD000080
:10129000FFFFFF0110B5406A0022014640314A833A
:1012A0004A82FFF77EFC10BD10B5EFF310810122DA
:1012B00082F3108802681368FF242134A34313606B
:1012C00081F31088EFF31081012282F31088026805
:1012D00093685B085B00936081F31088016E0129BD
:1012E0000BD1EFF31081012282F31088026813689A
:1012F0001024A343136081F310882021C1670021CB
:101300000166416610BD70B5014640318B8BC46FDC
:101310000268222C04D0906908210843906170BDB6
:10132000928C446D1A402280426D921C42654A8B19
:10133000521E4A834A8B002AF1D1EFF31082012317
:1013400083F3108803681C68FF252135AC431C60BB
:1013500082F31088EFF31082012383F3108803686F
:101360009C68640864009C6082F310882022C26735
:1013700000224266036E012B02D0FFF7F9FD70BD1B
:101380000266EFF31082012383F310880468256856
:1013900010239D43256082F310880268D469E443DA
:1013A000E40600D41362098BFFF7FAFB70BD70B539
:1013B000014640318B8BC46F0268222C04D09069A7
:1013C00008210843906170BD928C1A40436D1A70D9
:1013D000426D521C42654A8B521E4A834A8B002A38
:1013E000F1D1EFF31082012383F3108803681C68A6
:1013F000FF252135AC431C6082F31088EFF3108287
:10140000012383F3108803689C68640864009C606F
:1014100082F310882022C26700224266036E012BED
:1014200002D0FFF7A5FD70BD0266EFF31082012325
:1014300083F310880468256810239D43256082F398
:1014400010880268D469E443E40600D41362098B6F
:10145000FFF7A6FB70BD000070B5044680682169E7
:10146000E2690843616900251143084321680A685D
:101470003C4B1A4002430A60216848680322120369
:101480009043E26810434860A169206A08432168DC
:101490008A680B231B029A4302438A603248006B1E
:1014A0008007800F16D0012818D0022818D00328F2
:1014B00012D010210120E369C0032C4A2C4E834234
:1014C0002BD100290ED002290FD004290FD00829D2
:1014D0003FD110E00021EDE70221EBE70421E9E72D
:1014E0000821E7E7FFF730F903E0104603E0FFF7D4
:1014F0003BF9002831D0616840004A088018FEF7A7
:10150000F1FD80B201461039B14222D81849491C78
:1015100001400007400F08431DE0002906D00229C2
:1015200007D0042907D0082913D108E0FFF70CF9E8
:1015300003E0104603E0FFF717F900280DD06168BB
:101540004A081018FEF7CEFD80B201461039B142AC
:1015500001D9012501E02168C86000206066A0660D
:10156000284670BDF369FFFF0010024000127A00A8
:10157000EFFF000070B54165014640310A834A83A0
:1015800000224266012385681B03FF249D4204D18B
:101590000569002D31D11B4C2FE0002D29D08A8305
:1015A00080210A502221C167EFF31081012484F3C6
:1015B00010880468A56801263543A56081F310886A
:1015C0008168994202D10169002918D00E4941660B
:1015D00074210A54EFF31081012282F3108800680D
:1015E0000268FF2321331A43026081F31088002030
:1015F00070BD0569002D00D07F248C83D0E703499E
:10160000E5E70000FF010000AF1300080713000822
:10161000FFB581B005461746044660350A9E55E081
:10162000701C53D0FEF734FF0499401AB04230D8F2
:10163000002E2ED020680168490747D5C069C043F5
:10164000000543D401202168C0020862EFF3108036
:10165000012181F3108821680B68FF22A132934396
:101660000B6080F31088EFF31080012181F3108864
:1016700021688A68520852008A6080F3108820200E
:10168000A067E0678034206000202875032005B043
:10169000F0BDEFF31080012181F3108821680B6801
:1016A000FF22A13293430B6080F31088EFF3108088
:1016B000012181F3108821688A68520852008A60EB
:1016C00080F310882020A067E067DDE72068C1690B
:1016D0000298884304D00020B842A1D00020D6E769
:1016E0000120F9E710B50348FFF75CFA0249012031
:1016F000086010BDC4020020080000200FB410B51F
:1017000004A9074B02AA039800F056F8044602A960
:10171000002000F0F9F8204610BC08BC04B01847BF
:1017200009190008F8B5040C8BB2264682B25E4354
:101730000D0C1046370C58433604801900217941AE
:1017400016466E43370C36048019794126466E439F
:101750008919F8BD8307FF22DB0E9A408907090E1D
:101760009940002808DB830809489B001B1818686B
:1017700090430843186070470007000F083883083B
:1017800004489B001B18D86990430843D8617047F0
:1017900000E400E000ED00E002E008C8121F08C10C
:1017A000002AFAD170477047002001E001C1121FE2
:1017B000002AFBD170470000FFB58DB0044600251C
:1017C00006E025280AD0109A0F999047641C6D1CDA
:1017D00020780028F5D1284611B0F0BD002701215E
:1017E000484A009700E00743641C23780846203BE2
:1017F00098401042F7D120782E2817D104200743B3
:101800006078641C2A280CD10E98641C02C80091D0
:101810000E900BE000990A22514330394018641CA5
:1018200000902078014630390929F3D92078002822
:10183000D1D0642808D0692806D075281ED0109A07
:101840000F9990476D1C5BE00A200E99019001C929
:101850000E91002802DA40422D2102E0390504D51C
:101860002B216A461172012103E0F90704D02021DF
:10187000F7E70BAE0B910DE00021FAE70A200E9975
:10188000019001C90E91F7E70199FEF72BFC303169
:10189000761E31700028F7D103A8801B20300190FC
:1018A000780701D5009801E0012000900199884255
:1018B00001DD401A00E000200027009006E002A8A9
:1018C000109AC05D0F9990476D1C7F1C0B98874242
:1018D000F5DB04E0109A30200F9990476D1C0099B9
:1018E000481E00900029F5DC05E03078109A761C3F
:1018F0000F9990476D1C0199481E01900029F4DC56
:10190000641C65E7092801000A68531C0B6010700D
:10191000704700001FB5FEF7C9FDFFF7EEFBFFF7AC
:1019200093FBFFF7C7FBE948412101705421417047
:101930002B2181704321C1704D21017147214171DB
:10194000532181713D21C1712223037230244472DD
:10195000392181723322C2723821017332214173DD
:101960008473C27335220274312242748174C2744A
:101970000375FF22D732D6494830FFF7C7FA19243A
:10198000D248640123460922D2A14830FFF7F1FA78
:10199000CE4823460122D2494830FFF7EAFA7D2596
:1019A000ED002846FEF782FCC8492346084615226A
:1019B0004830FFF7DEFAC54823460122C8494830BF
:1019C000FFF7D7FA2846FEF771FCC04823461222DB
:1019D000C4A14830FFF7CDFABC4823460122C049D4
:1019E0004830FFF7C6FA2846FEF760FCBC49B74806
:1019F00023460122091F4830FFF7BBFAB84C143CBC
:101A0000A06801287ED10020FF22A432A060C6E099
:101A1000AF490B5C242B76D109184B78472BFAD1B0
:101A20008B78502BF7D1CB78522BF4D10B794D2BEF
:101A3000F1D14B79432BEED1FF235F33984262DA29
:101A40000123E360CB790A26303B0D7A7343303BA8
:101A5000EB18E3614B7A8D7A303B7343303BEB18E4
:101A60002362CD7A0B7B303D7543303D5D19303BB1
:101A70006562A362CB7C9A4E9C460A25303B6B4341
:101A8000403633600D7D2F46303D75605B19E36253
:101A90006346523E337077704F7D974B8B4E303F8D
:101AA0005F43383E37608B7D944D303B6B437360B2
:101AB00000930D7EA623303D5D43AE46B5604D7E5E
:101AC0002B018F4D5D19F5608B7E7544303B9C4634
:101AD0003361009BFE1875196346EB1823632031B0
:101AE00002934B780A259E46303B6B437C4DDEB219
:101AF000103D2E708F787346BC46303FFFB26F703A
:101B0000F51901E059E049E06563754D67460E3D02
:101B10002B706F70CF78784B303F5F436B4BBE4676
:101B20001C3B1F60463530372F700D79734E303DAA
:101B300075435D606A4E00953836303575708D7925
:101B4000A626303D75439D60AC462B46644D303330
:101B50003835AB70CD795D4B2E01694D1C3B761944
:101B6000DE605F4D334630333835EB700D7A574BBE
:101B7000294630391C3B196101912946584D774659
:101B800038352971029B2370218F6170009D79196E
:101B90006546AB19CB1801995918A163401C9042B6
:101BA00000DC35E701215748FEF764FC4748FF2277
:101BB000D73247494830FFF7A9F97D25ED0029467E
:101BC000206BFEF7A5FAA164074660642946A06B66
:101BD000FEF79EFA21640646E0631D21206AFEF7A7
:101BE00097FA1C2901D10120A061A068002800D02B
:101BF00006E7A06A0028FBD0E0680128F8D1E06A77
:101C00000028F5DD606B0028F2DD002FF0DD002EEE
:101C1000EEDD0029ECD1A0690128E9D119272B4874
:101C200000267F013B4609222AA14830A661FFF722
:101C3000A0F926483B46012229494830FFF799F987
:101C40002846FEF733FB21493B460846152248301B
:101C5000FFF78FF91D483B46012221494830FFF725
:101C600088F92846FEF722FB236CE26B616BA06CBF
:101C7000009001A80EC0154823A11530636CE26ADC
:101C8000FFF73CFD11493B46153108461122333020
:101C9000FFF76FF9FF25F5352846FEF707FB1049DA
:101CA0000A483B460122091F4830FFF762F90748FE
:101CB0003B4601220A494830FFF75BF92846FEF708
:101CC000F5FA2846E660FEF7F1FA99E67C02002074
:101CD0006C00002041542B434D47463D310000002D
:101CE0001400002073696D3830306C2069732068EF
:101CF000657265203A2900001A4100008206000042
:101D000000FDFFFF0004004825642E256425642C97
:101D100025642E25642564000000000000000000FA
:101D20000102030406070809000000000102030481
:101D3000501D0008000000206C00000098170008EB
:101D4000BC1D00086C000020DC060000A81700087D
:101D50000000000000000000000000000000000083
:101D60001A0000000D00000000000000000000004C
:101D70000000000000000000000000000000000063
:101D80000000000000000000000000000000000053
:101D90000000000000000000000000000000000043
:101DA0000000000000000000000000000100000032
:0C1DB000040000000000000000127A0097
:04000005080000B13E
:00000001FF
